{"abi":[{"type":"function","name":"arithmeticError","inputs":[],"outputs":[{"name":"","type":"bytes","internalType":"bytes"}],"stateMutability":"view"},{"type":"function","name":"assertionError","inputs":[],"outputs":[{"name":"","type":"bytes","internalType":"bytes"}],"stateMutability":"view"},{"type":"function","name":"divisionError","inputs":[],"outputs":[{"name":"","type":"bytes","internalType":"bytes"}],"stateMutability":"view"},{"type":"function","name":"encodeStorageError","inputs":[],"outputs":[{"name":"","type":"bytes","internalType":"bytes"}],"stateMutability":"view"},{"type":"function","name":"enumConversionError","inputs":[],"outputs":[{"name":"","type":"bytes","internalType":"bytes"}],"stateMutability":"view"},{"type":"function","name":"indexOOBError","inputs":[],"outputs":[{"name":"","type":"bytes","internalType":"bytes"}],"stateMutability":"view"},{"type":"function","name":"memOverflowError","inputs":[],"outputs":[{"name":"","type":"bytes","internalType":"bytes"}],"stateMutability":"view"},{"type":"function","name":"popError","inputs":[],"outputs":[{"name":"","type":"bytes","internalType":"bytes"}],"stateMutability":"view"},{"type":"function","name":"zeroVarError","inputs":[],"outputs":[{"name":"","type":"bytes","internalType":"bytes"}],"stateMutability":"view"}],"bytecode":{"object":"0x6080806040523460195761042e908161001e823930815050f35b5f80fdfe6080806040526004361015610012575f80fd5b5f3560e01c90816305ee8612146102fb5750806310332977146102ae5780631de45560146102615780638995290f14610214578063986c5f68146101c7578063b22dc54d1461017a578063b67689da1461012d578063d160e4de146100e05763fa784a441461007f575f80fd5b5f6003193601126100dc576100d86040517f4e487b7100000000000000000000000000000000000000000000000000000000602082015260126024820152602481526100cc604482610342565b604051918291826103b0565b0390f35b5f80fd5b5f6003193601126100dc576100d86040517f4e487b7100000000000000000000000000000000000000000000000000000000602082015260226024820152602481526100cc604482610342565b5f6003193601126100dc576100d86040517f4e487b7100000000000000000000000000000000000000000000000000000000602082015260516024820152602481526100cc604482610342565b5f6003193601126100dc576100d86040517f4e487b7100000000000000000000000000000000000000000000000000000000602082015260316024820152602481526100cc604482610342565b5f6003193601126100dc576100d86040517f4e487b7100000000000000000000000000000000000000000000000000000000602082015260416024820152602481526100cc604482610342565b5f6003193601126100dc576100d86040517f4e487b7100000000000000000000000000000000000000000000000000000000602082015260116024820152602481526100cc604482610342565b5f6003193601126100dc576100d86040517f4e487b7100000000000000000000000000000000000000000000000000000000602082015260216024820152602481526100cc604482610342565b5f6003193601126100dc576100d86040517f4e487b7100000000000000000000000000000000000000000000000000000000602082015260016024820152602481526100cc604482610342565b5f6003193601126100dc57807f4e487b710000000000000000000000000000000000000000000000000000000060206100d893015260326024820152602481526100cc6044825b90601f7fffffffffffffffffffffffffffffffffffffffffffffffffffffffffffffffe0910116810190811067ffffffffffffffff82111761038357604052565b7f4e487b71000000000000000000000000000000000000000000000000000000005f52604160045260245ffd5b7fffffffffffffffffffffffffffffffffffffffffffffffffffffffffffffffe0601f602060409481855280519182918282880152018686015e5f858286010152011601019056fea2646970667358221220f8a12c6284013e559baca0cdf2ddc7295c6c80bf5b5f4e6f741714fa0c0a1ff364736f6c63430008210033","linkReferences":{}},"methodIdentifiers":{"arithmeticError()":"8995290f","assertionError()":"10332977","divisionError()":"fa784a44","encodeStorageError()":"d160e4de","enumConversionError()":"1de45560","indexOOBError()":"05ee8612","memOverflowError()":"986c5f68","popError()":"b22dc54d","zeroVarError()":"b67689da"},"id":5}