{"abi":[{"type":"constructor","inputs":[{"name":"_initial","type":"uint256","internalType":"uint256"}],"stateMutability":"nonpayable"},{"type":"function","name":"count","inputs":[],"outputs":[{"name":"","type":"uint256","internalType":"uint256"}],"stateMutability":"view"},{"type":"function","name":"decrement","inputs":[],"outputs":[],"stateMutability":"nonpayable"},{"type":"function","name":"get","inputs":[],"outputs":[{"name":"","type":"uint256","internalType":"uint256"}],"stateMutability":"view"},{"type":"function","name":"increment","inputs":[],"outputs":[],"stateMutability":"nonpayable"},{"type":"function","name":"reset","inputs":[],"outputs":[],"stateMutability":"nonpayable"}],"bytecode":{"object":"0x608034604d57601f61026138819003918201601f19168301916001600160401b03831184841017605157808492602094604052833981010312604d57515f556040516101fb90816100668239f35b5f80fd5b634e487b7160e01b5f52604160045260245ffdfe6080806040526004361015610012575f80fd5b5f3560e01c90816306661abd1461018e575080632baeceb7146101305780636d4ce63c146100f6578063d09de08a1461008a5763d826f88f14610053575f80fd5b34610086575f7ffffffffffffffffffffffffffffffffffffffffffffffffffffffffffffffffc360112610086575f8055005b5f80fd5b34610086575f7ffffffffffffffffffffffffffffffffffffffffffffffffffffffffffffffffc360112610086575f54600181018091116100c9575f55005b7f4e487b71000000000000000000000000000000000000000000000000000000005f52601160045260245ffd5b34610086575f7ffffffffffffffffffffffffffffffffffffffffffffffffffffffffffffffffc3601126100865760205f54604051908152f35b34610086575f7ffffffffffffffffffffffffffffffffffffffffffffffffffffffffffffffffc360112610086575f547fffffffffffffffffffffffffffffffffffffffffffffffffffffffffffffffff81019081116100c9575f55005b34610086575f7ffffffffffffffffffffffffffffffffffffffffffffffffffffffffffffffffc360112610086576020905f548152f3fea264697066735822122036e45df4af2b9880f5a1b7c690dcfc38705650a91d3187b79f16f60950cfa3da64736f6c63430008210033","linkReferences":{}},"methodIdentifiers":{"count()":"06661abd","decrement()":"2baeceb7","get()":"6d4ce63c","increment()":"d09de08a","reset()":"d826f88f"},"id":19}