{"abi":[{"type":"function","name":"allowance","inputs":[{"name":"owner","type":"address","internalType":"address"},{"name":"spender","type":"address","internalType":"address"}],"outputs":[{"name":"","type":"uint256","internalType":"uint256"}],"stateMutability":"view"},{"type":"function","name":"allowances","inputs":[{"name":"","type":"address","internalType":"address"},{"name":"","type":"address","internalType":"address"}],"outputs":[{"name":"","type":"uint256","internalType":"uint256"}],"stateMutability":"view"},{"type":"function","name":"approve","inputs":[{"name":"spender","type":"address","internalType":"address"},{"name":"amount","type":"uint256","internalType":"uint256"}],"outputs":[{"name":"","type":"bool","internalType":"bool"}],"stateMutability":"nonpayable"},{"type":"function","name":"balanceOf","inputs":[{"name":"account","type":"address","internalType":"address"}],"outputs":[{"name":"","type":"uint256","internalType":"uint256"}],"stateMutability":"view"},{"type":"function","name":"balances","inputs":[{"name":"","type":"address","internalType":"address"}],"outputs":[{"name":"","type":"uint256","internalType":"uint256"}],"stateMutability":"view"},{"type":"function","name":"mint","inputs":[{"name":"to","type":"address","internalType":"address"},{"name":"amount","type":"uint256","internalType":"uint256"}],"outputs":[],"stateMutability":"nonpayable"},{"type":"function","name":"totalSupply","inputs":[],"outputs":[{"name":"","type":"uint256","internalType":"uint256"}],"stateMutability":"view"},{"type":"function","name":"transfer","inputs":[{"name":"to","type":"address","internalType":"address"},{"name":"amount","type":"uint256","internalType":"uint256"}],"outputs":[{"name":"","type":"bool","internalType":"bool"}],"stateMutability":"nonpayable"},{"type":"function","name":"transferFrom","inputs":[{"name":"from","type":"address","internalType":"address"},{"name":"to","type":"address","internalType":"address"},{"name":"amount","type":"uint256","internalType":"uint256"}],"outputs":[{"name":"","type":"bool","internalType":"bool"}],"stateMutability":"nonpayable"},{"type":"event","name":"Approval","inputs":[{"name":"owner","type":"address","indexed":true,"internalType":"address"},{"name":"spender","type":"address","indexed":true,"internalType":"address"},{"name":"amount","type":"uint256","indexed":false,"internalType":"uint256"}],"anonymous":false},{"type":"event","name":"Transfer","inputs":[{"name":"from","type":"address","indexed":true,"internalType":"address"},{"name":"to","type":"address","indexed":true,"internalType":"address"},{"name":"amount","type":"uint256","indexed":false,"internalType":"uint256"}],"anonymous":false}],"bytecode":{"object":"0x60808060405234601557610487908161001a8239f35b5f80fdfe60806040526004361015610011575f80fd5b5f3560e01c8063095ea7b3146102b657806318160ddd1461029a57806323b872dd146101f357806327e235e31461011f57806340c10f191461016457806355b6ed5c1461007c57806370a082311461011f578063a9059cbb146100ee5763dd62ed3e1461007c575f80fd5b346100ea5760406003193601126100ea5761009561033b565b73ffffffffffffffffffffffffffffffffffffffff6100b261035e565b91165f52600260205273ffffffffffffffffffffffffffffffffffffffff60405f2091165f52602052602060405f2054604051908152f35b5f80fd5b346100ea5760406003193601126100ea5761011461010a61033b565b60243590336103c8565b602060405160018152f35b346100ea5760206003193601126100ea5773ffffffffffffffffffffffffffffffffffffffff61014d61033b565b165f526001602052602060405f2054604051908152f35b346100ea5760406003193601126100ea5761017d61033b565b5f7fddf252ad1be2c89b69c2b068fc378daa952ba7f163c4a11628f55a4df523b3ef602073ffffffffffffffffffffffffffffffffffffffff602435946101c58686546103bb565b85551693848452600182526101de8160408620546103bb565b858552600183526040852055604051908152a3005b346100ea5760606003193601126100ea5761011461020f61033b565b61021761035e565b6044359173ffffffffffffffffffffffffffffffffffffffff8116805f52600260205260405f2073ffffffffffffffffffffffffffffffffffffffff33165f526020526102688460405f2054610381565b905f52600260205260405f2073ffffffffffffffffffffffffffffffffffffffff33165f5260205260405f20556103c8565b346100ea575f6003193601126100ea5760205f54604051908152f35b346100ea5760406003193601126100ea576102cf61033b565b73ffffffffffffffffffffffffffffffffffffffff60243591335f52600260205260405f208282165f526020528260405f205560405192835216907f8c5be1e5ebec7d5bd14f71427d1e84f3dd0314c0f7b2291e5b200ac8c7c3b92560203392a3602060405160018152f35b6004359073ffffffffffffffffffffffffffffffffffffffff821682036100ea57565b6024359073ffffffffffffffffffffffffffffffffffffffff821682036100ea57565b9190820391821161038e57565b7f4e487b71000000000000000000000000000000000000000000000000000000005f52601160045260245ffd5b9190820180921161038e57565b602073ffffffffffffffffffffffffffffffffffffffff807fddf252ad1be2c89b69c2b068fc378daa952ba7f163c4a11628f55a4df523b3ef931693845f52600183526104198660405f2054610381565b855f526001845260405f20551693845f526001825261043c8160405f20546103bb565b855f526001835260405f2055604051908152a356fea264697066735822122008cca7c08c837ac26b17502f703ee445224d8c9b9742b26f2fa0f14664c0dbf264736f6c63430008210033","linkReferences":{}},"methodIdentifiers":{"allowance(address,address)":"dd62ed3e","allowances(address,address)":"55b6ed5c","approve(address,uint256)":"095ea7b3","balanceOf(address)":"70a08231","balances(address)":"27e235e3","mint(address,uint256)":"40c10f19","totalSupply()":"18160ddd","transfer(address,uint256)":"a9059cbb","transferFrom(address,address,uint256)":"23b872dd"},"id":20}